{
  "transactions": [
    {
      "hash": "0x942c4d59a847655c6d9eb55b9c8aec8b0d59128ca309034c0ab815ce29e074e6",
      "transactionType": "CALL",
      "contractName": null,
      "contractAddress": "0xbee236dd56637f5ed6d4c8a6721c694e8580448e",
      "function": "addAchievement(uint256,string,string)",
      "arguments": [
        "1",
        "\"First Achievement\"",
        "\"This is the first achievement\""
      ],
      "transaction": {
        "from": "0xd4f9573225b65c7590129cfcade37026a963d80c",
        "to": "0xbee236dd56637f5ed6d4c8a6721c694e8580448e",
        "gas": "0x23e66",
        "value": "0x0",
        "input": "0xf2276b310000000000000000000000000000000000000000000000000000000000000001000000000000000000000000000000000000000000000000000000000000006000000000000000000000000000000000000000000000000000000000000000a00000000000000000000000000000000000000000000000000000000000000011466972737420416368696576656d656e74000000000000000000000000000000000000000000000000000000000000000000000000000000000000000000001d546869732069732074686520666972737420616368696576656d656e74000000",
        "nonce": "0xb",
        "chainId": "0x5618"
      },
      "additionalContracts": [],
      "isFixedGasLimit": false
    },
    {
      "hash": "0x5de9428e9d3b09e6591dabe87aa5b3b45557a1b5ec60e8dc0ab56b65e47f8183",
      "transactionType": "CALL",
      "contractName": null,
      "contractAddress": "0xbee236dd56637f5ed6d4c8a6721c694e8580448e",
      "function": "removeAchievement(uint256,string)",
      "arguments": [
        "1",
        "\"First Achievement\""
      ],
      "transaction": {
        "from": "0xd4f9573225b65c7590129cfcade37026a963d80c",
        "to": "0xbee236dd56637f5ed6d4c8a6721c694e8580448e",
        "gas": "0x102ab",
        "value": "0x0",
        "input": "0xfcffda64000000000000000000000000000000000000000000000000000000000000000100000000000000000000000000000000000000000000000000000000000000400000000000000000000000000000000000000000000000000000000000000011466972737420416368696576656d656e74000000000000000000000000000000",
        "nonce": "0xc",
        "chainId": "0x5618"
      },
      "additionalContracts": [],
      "isFixedGasLimit": false
    }
  ],
  "receipts": [
    {
      "status": "0x1",
      "cumulativeGasUsed": "0x17a89",
      "logs": [],
      "logsBloom": "0x00000000000000000000000000000000000000000000000000000000000000000000000000000000000000000000000000000000000000000000000000000000000000000000000000000000000000000000000000000000000000000000000000000000000000000000000000000000000000000000000000000000000000000000000000000000000000000000000000000000000000000000000000000000000000000000000000000000000000000000000000000000000000000000000000000000000000000000000000000000000000000000000000000000000000000000000000000000000000000000000000000000000000000000000000000000",
      "type": "0x0",
      "transactionHash": "0x942c4d59a847655c6d9eb55b9c8aec8b0d59128ca309034c0ab815ce29e074e6",
      "transactionIndex": "0x0",
      "blockHash": "0x8f2cd6bb04bafe10167556dae4ac94ebf37dbcf730d8b1533294343802134113",
      "blockNumber": "0x1b328a",
      "gasUsed": "0x17a89",
      "effectiveGasPrice": "0x0",
      "from": "0xd4f9573225b65c7590129cfcade37026a963d80c",
      "to": "0xbee236dd56637f5ed6d4c8a6721c694e8580448e",
      "contractAddress": null
    }
  ],
  "libraries": [],
  "pending": [],
  "returns": {},
  "timestamp": 1726866966,
  "chain": 22040,
  "commit": "90f5bf6"
}