{
  "transactions": [
    {
      "hash": "0xbb1bd09a0650d9c86baf7d52c6152cb8a16606860a82a410eec2b410ad67a98f",
      "transactionType": "CALL",
      "contractName": null,
      "contractAddress": "0x0de88077065a5368aa52b0d026592ed2b9514d70",
      "function": "addAchievement(uint256,string,string)",
      "arguments": [
        "0",
        "\"First Achievement\"",
        "\"This is the first achievement\""
      ],
      "transaction": {
        "from": "0xd4f9573225b65c7590129cfcade37026a963d80c",
        "to": "0x0de88077065a5368aa52b0d026592ed2b9514d70",
        "gas": "0x21e6c",
        "value": "0x0",
        "input": "0xf2276b310000000000000000000000000000000000000000000000000000000000000000000000000000000000000000000000000000000000000000000000000000006000000000000000000000000000000000000000000000000000000000000000a00000000000000000000000000000000000000000000000000000000000000011466972737420416368696576656d656e74000000000000000000000000000000000000000000000000000000000000000000000000000000000000000000001d546869732069732074686520666972737420616368696576656d656e74000000",
        "nonce": "0x20",
        "chainId": "0x5618"
      },
      "additionalContracts": [],
      "isFixedGasLimit": false
    },
    {
      "hash": "0x61c6cdf05249eb12b87df7cbeebed2e19e8307b4a1b833e7b96856c164e858a6",
      "transactionType": "CALL",
      "contractName": null,
      "contractAddress": "0x0de88077065a5368aa52b0d026592ed2b9514d70",
      "function": "removeAchievement(uint256,string)",
      "arguments": [
        "0",
        "\"First Achievement\""
      ],
      "transaction": {
        "from": "0xd4f9573225b65c7590129cfcade37026a963d80c",
        "to": "0x0de88077065a5368aa52b0d026592ed2b9514d70",
        "gas": "0x1029d",
        "value": "0x0",
        "input": "0xfcffda64000000000000000000000000000000000000000000000000000000000000000000000000000000000000000000000000000000000000000000000000000000400000000000000000000000000000000000000000000000000000000000000011466972737420416368696576656d656e74000000000000000000000000000000",
        "nonce": "0x21",
        "chainId": "0x5618"
      },
      "additionalContracts": [],
      "isFixedGasLimit": false
    }
  ],
  "receipts": [
    {
      "status": "0x1",
      "cumulativeGasUsed": "0x17a49",
      "logs": [],
      "logsBloom": "0x00000000000000000000000000000000000000000000000000000000000000000000000000000000000000000000000000000000000000000000000000000000000000000000000000000000000000000000000000000000000000000000000000000000000000000000000000000000000000000000000000000000000000000000000000000000000000000000000000000000000000000000000000000000000000000000000000000000000000000000000000000000000000000000000000000000000000000000000000000000000000000000000000000000000000000000000000000000000000000000000000000000000000000000000000000000",
      "type": "0x0",
      "transactionHash": "0xbb1bd09a0650d9c86baf7d52c6152cb8a16606860a82a410eec2b410ad67a98f",
      "transactionIndex": "0x0",
      "blockHash": "0x23c811b7857a6bbb1c2fec635b38d7722b59aa7d61ed7e35a40c5c095c5fba80",
      "blockNumber": "0x1b334e",
      "gasUsed": "0x17a49",
      "effectiveGasPrice": "0x0",
      "from": "0xd4f9573225b65c7590129cfcade37026a963d80c",
      "to": "0x0de88077065a5368aa52b0d026592ed2b9514d70",
      "contractAddress": null
    }
  ],
  "libraries": [],
  "pending": [],
  "returns": {},
  "timestamp": 1726868204,
  "chain": 22040,
  "commit": "90f5bf6"
}