{
  "transactions": [
    {
      "hash": "0x44ab1ecebe18a1d4f00383a04a4b6d225837c1c370e66fc131182fdb7ce8d7cd",
      "transactionType": "CALL",
      "contractName": null,
      "contractAddress": "0x0de88077065a5368aa52b0d026592ed2b9514d70",
      "function": "addAchievement(uint256,string,string)",
      "arguments": [
        "0",
        "\"First Achievement\"",
        "\"This is the first achievement\""
      ],
      "transaction": {
        "from": "0xd4f9573225b65c7590129cfcade37026a963d80c",
        "to": "0x0de88077065a5368aa52b0d026592ed2b9514d70",
        "gas": "0x21e6c",
        "value": "0x0",
        "input": "0xf2276b310000000000000000000000000000000000000000000000000000000000000000000000000000000000000000000000000000000000000000000000000000006000000000000000000000000000000000000000000000000000000000000000a00000000000000000000000000000000000000000000000000000000000000011466972737420416368696576656d656e74000000000000000000000000000000000000000000000000000000000000000000000000000000000000000000001d546869732069732074686520666972737420616368696576656d656e74000000",
        "nonce": "0x1c",
        "chainId": "0x5618"
      },
      "additionalContracts": [],
      "isFixedGasLimit": false
    },
    {
      "hash": "0xd589846f476be5a734eb80bc88f78e8a6004a24cdac32c1e97e8851ab660ad62",
      "transactionType": "CALL",
      "contractName": null,
      "contractAddress": "0x0de88077065a5368aa52b0d026592ed2b9514d70",
      "function": "removeAchievement(uint256,string)",
      "arguments": [
        "0",
        "\"First Achievement\""
      ],
      "transaction": {
        "from": "0xd4f9573225b65c7590129cfcade37026a963d80c",
        "to": "0x0de88077065a5368aa52b0d026592ed2b9514d70",
        "gas": "0x1029d",
        "value": "0x0",
        "input": "0xfcffda64000000000000000000000000000000000000000000000000000000000000000000000000000000000000000000000000000000000000000000000000000000400000000000000000000000000000000000000000000000000000000000000011466972737420416368696576656d656e74000000000000000000000000000000",
        "nonce": "0x1d",
        "chainId": "0x5618"
      },
      "additionalContracts": [],
      "isFixedGasLimit": false
    }
  ],
  "receipts": [
    {
      "status": "0x1",
      "cumulativeGasUsed": "0x17a49",
      "logs": [],
      "logsBloom": "0x00000000000000000000000000000000000000000000000000000000000000000000000000000000000000000000000000000000000000000000000000000000000000000000000000000000000000000000000000000000000000000000000000000000000000000000000000000000000000000000000000000000000000000000000000000000000000000000000000000000000000000000000000000000000000000000000000000000000000000000000000000000000000000000000000000000000000000000000000000000000000000000000000000000000000000000000000000000000000000000000000000000000000000000000000000000",
      "type": "0x0",
      "transactionHash": "0x44ab1ecebe18a1d4f00383a04a4b6d225837c1c370e66fc131182fdb7ce8d7cd",
      "transactionIndex": "0x0",
      "blockHash": "0x16951d1553586ddcf33d37425918bb79fa9a13b49c20b9ff5fa1fb780cfbbba6",
      "blockNumber": "0x1b3308",
      "gasUsed": "0x17a49",
      "effectiveGasPrice": "0x0",
      "from": "0xd4f9573225b65c7590129cfcade37026a963d80c",
      "to": "0x0de88077065a5368aa52b0d026592ed2b9514d70",
      "contractAddress": null
    }
  ],
  "libraries": [],
  "pending": [],
  "returns": {},
  "timestamp": 1726867759,
  "chain": 22040,
  "commit": "90f5bf6"
}