{
  "transactions": [
    {
      "hash": "0x102ccf29547a77c18371d561f32b2201d1de413446a03b386d7eedc8e625b91f",
      "transactionType": "CALL",
      "contractName": null,
      "contractAddress": "0x0de88077065a5368aa52b0d026592ed2b9514d70",
      "function": "mint(address,string)",
      "arguments": [
        "0xfa97a95C49369181211679d24F61A49470Bba110",
        "\"ipfs://QmExample\""
      ],
      "transaction": {
        "from": "0xd4f9573225b65c7590129cfcade37026a963d80c",
        "to": "0x0de88077065a5368aa52b0d026592ed2b9514d70",
        "gas": "0x273e2",
        "value": "0x0",
        "input": "0xd0def521000000000000000000000000fa97a95c49369181211679d24f61a49470bba11000000000000000000000000000000000000000000000000000000000000000400000000000000000000000000000000000000000000000000000000000000010697066733a2f2f516d4578616d706c6500000000000000000000000000000000",
        "nonce": "0x17",
        "chainId": "0x5618"
      },
      "additionalContracts": [],
      "isFixedGasLimit": false
    },
    {
      "hash": "0x70d6ba96cf730b6728c3342dc68fd37d2e4ed169a5e1031cc649381e5b69a7f0",
      "transactionType": "CALL",
      "contractName": null,
      "contractAddress": "0x0de88077065a5368aa52b0d026592ed2b9514d70",
      "function": "addAchievement(uint256,string,string)",
      "arguments": [
        "0",
        "\"First Achievement\"",
        "\"This is the first achievement\""
      ],
      "transaction": {
        "from": "0xd4f9573225b65c7590129cfcade37026a963d80c",
        "to": "0x0de88077065a5368aa52b0d026592ed2b9514d70",
        "gas": "0x2a006",
        "value": "0x0",
        "input": "0xf2276b310000000000000000000000000000000000000000000000000000000000000000000000000000000000000000000000000000000000000000000000000000006000000000000000000000000000000000000000000000000000000000000000a00000000000000000000000000000000000000000000000000000000000000011466972737420416368696576656d656e74000000000000000000000000000000000000000000000000000000000000000000000000000000000000000000001d546869732069732074686520666972737420616368696576656d656e74000000",
        "nonce": "0x18",
        "chainId": "0x5618"
      },
      "additionalContracts": [],
      "isFixedGasLimit": false
    },
    {
      "hash": "0x5acbcb45c8eece51af1e9b46151aadf88ea667d8550cb38372d406a663da8d24",
      "transactionType": "CALL",
      "contractName": null,
      "contractAddress": "0x0de88077065a5368aa52b0d026592ed2b9514d70",
      "function": "removeAchievement(uint256,string)",
      "arguments": [
        "0",
        "\"First Achievement\""
      ],
      "transaction": {
        "from": "0xd4f9573225b65c7590129cfcade37026a963d80c",
        "to": "0x0de88077065a5368aa52b0d026592ed2b9514d70",
        "gas": "0xe154",
        "value": "0x0",
        "input": "0xfcffda64000000000000000000000000000000000000000000000000000000000000000000000000000000000000000000000000000000000000000000000000000000400000000000000000000000000000000000000000000000000000000000000011466972737420416368696576656d656e74000000000000000000000000000000",
        "nonce": "0x19",
        "chainId": "0x5618"
      },
      "additionalContracts": [],
      "isFixedGasLimit": false
    }
  ],
  "receipts": [
    {
      "status": "0x1",
      "cumulativeGasUsed": "0x1bb30",
      "logs": [
        {
          "address": "0x0de88077065a5368aa52b0d026592ed2b9514d70",
          "topics": [
            "0x30385c845b448a36257a6a1716e6ad2e1bc2cbe333cde1e69fe849ad6511adfe",
            "0x000000000000000000000000fa97a95c49369181211679d24f61a49470bba110",
            "0x0000000000000000000000000000000000000000000000000000000000000000"
          ],
          "data": "0x",
          "blockHash": "0xdf87cff1d26fc02d1b2551a13eb8514524ba67f492bc182f1f9536538506b509",
          "blockNumber": "0x1b32f0",
          "transactionHash": "0x102ccf29547a77c18371d561f32b2201d1de413446a03b386d7eedc8e625b91f",
          "transactionIndex": "0x0",
          "logIndex": "0x0",
          "removed": false
        }
      ],
      "logsBloom": "0x00000000000000000000000000000000000000000000000000000000000000020000000000000000000000000000000000000000000000000000000000000000000000000000000000000000000000000000000000000000000000000000000000000000020080000000000000000800000000000000000080000002000000000000000000400000000000000000000000000000000000000000000000000000000000000000000000000000000000000000000000000000000000000000000008020000000000000000000000000000000000004040000000000000000020000000000000000000000000000000000000000000000000000000000000000000",
      "type": "0x0",
      "transactionHash": "0x102ccf29547a77c18371d561f32b2201d1de413446a03b386d7eedc8e625b91f",
      "transactionIndex": "0x0",
      "blockHash": "0xdf87cff1d26fc02d1b2551a13eb8514524ba67f492bc182f1f9536538506b509",
      "blockNumber": "0x1b32f0",
      "gasUsed": "0x1bb30",
      "effectiveGasPrice": "0x0",
      "from": "0xd4f9573225b65c7590129cfcade37026a963d80c",
      "to": "0x0de88077065a5368aa52b0d026592ed2b9514d70",
      "contractAddress": null
    },
    {
      "status": "0x1",
      "cumulativeGasUsed": "0x37011",
      "logs": [],
      "logsBloom": "0x00000000000000000000000000000000000000000000000000000000000000000000000000000000000000000000000000000000000000000000000000000000000000000000000000000000000000000000000000000000000000000000000000000000000000000000000000000000000000000000000000000000000000000000000000000000000000000000000000000000000000000000000000000000000000000000000000000000000000000000000000000000000000000000000000000000000000000000000000000000000000000000000000000000000000000000000000000000000000000000000000000000000000000000000000000000",
      "type": "0x0",
      "transactionHash": "0x70d6ba96cf730b6728c3342dc68fd37d2e4ed169a5e1031cc649381e5b69a7f0",
      "transactionIndex": "0x1",
      "blockHash": "0xdf87cff1d26fc02d1b2551a13eb8514524ba67f492bc182f1f9536538506b509",
      "blockNumber": "0x1b32f0",
      "gasUsed": "0x1b4e1",
      "effectiveGasPrice": "0x0",
      "from": "0xd4f9573225b65c7590129cfcade37026a963d80c",
      "to": "0x0de88077065a5368aa52b0d026592ed2b9514d70",
      "contractAddress": null
    }
  ],
  "libraries": [],
  "pending": [],
  "returns": {},
  "timestamp": 1726867612,
  "chain": 22040,
  "commit": "90f5bf6"
}