{
  "transactions": [
    {
      "hash": "0x53d8d0d6338cf0d8d98cc46da17961101f269cad7d6df6b4197c7e059d6df993",
      "transactionType": "CALL",
      "contractName": null,
      "contractAddress": "0x0108461b9dc29927a866159e0232cdbccff4471b",
      "function": "mint(address,string)",
      "arguments": [
        "0xd4f9573225b65C7590129CfCade37026A963d80C",
        "\"ipfs://QmExample\""
      ],
      "transaction": {
        "from": "0xd4f9573225b65c7590129cfcade37026a963d80c",
        "to": "0x0108461b9dc29927a866159e0232cdbccff4471b",
        "gas": "0x273e2",
        "value": "0x0",
        "input": "0xd0def521000000000000000000000000d4f9573225b65c7590129cfcade37026a963d80c00000000000000000000000000000000000000000000000000000000000000400000000000000000000000000000000000000000000000000000000000000010697066733a2f2f516d4578616d706c6500000000000000000000000000000000",
        "nonce": "0x10",
        "chainId": "0x5618"
      },
      "additionalContracts": [],
      "isFixedGasLimit": false
    },
    {
      "hash": "0xe71c8dfc01937edf03a590cb55d9653d9f598674185fc953728d29adc5c24881",
      "transactionType": "CALL",
      "contractName": null,
      "contractAddress": "0x0108461b9dc29927a866159e0232cdbccff4471b",
      "function": "addAchievement(uint256,string,string)",
      "arguments": [
        "0",
        "\"First Achievement\"",
        "\"This is the first achievement\""
      ],
      "transaction": {
        "from": "0xd4f9573225b65c7590129cfcade37026a963d80c",
        "to": "0x0108461b9dc29927a866159e0232cdbccff4471b",
        "gas": "0x2a006",
        "value": "0x0",
        "input": "0xf2276b310000000000000000000000000000000000000000000000000000000000000000000000000000000000000000000000000000000000000000000000000000006000000000000000000000000000000000000000000000000000000000000000a00000000000000000000000000000000000000000000000000000000000000011466972737420416368696576656d656e74000000000000000000000000000000000000000000000000000000000000000000000000000000000000000000001d546869732069732074686520666972737420616368696576656d656e74000000",
        "nonce": "0x11",
        "chainId": "0x5618"
      },
      "additionalContracts": [],
      "isFixedGasLimit": false
    },
    {
      "hash": "0xb20a64cf51a923be52b2c7bf2660a327af0fd599a769ae46ed36bb80d43ee41d",
      "transactionType": "CALL",
      "contractName": null,
      "contractAddress": "0x0108461b9dc29927a866159e0232cdbccff4471b",
      "function": "removeAchievement(uint256,string)",
      "arguments": [
        "0",
        "\"First Achievement\""
      ],
      "transaction": {
        "from": "0xd4f9573225b65c7590129cfcade37026a963d80c",
        "to": "0x0108461b9dc29927a866159e0232cdbccff4471b",
        "gas": "0xe154",
        "value": "0x0",
        "input": "0xfcffda64000000000000000000000000000000000000000000000000000000000000000000000000000000000000000000000000000000000000000000000000000000400000000000000000000000000000000000000000000000000000000000000011466972737420416368696576656d656e74000000000000000000000000000000",
        "nonce": "0x12",
        "chainId": "0x5618"
      },
      "additionalContracts": [],
      "isFixedGasLimit": false
    }
  ],
  "receipts": [
    {
      "status": "0x1",
      "cumulativeGasUsed": "0x1bb30",
      "logs": [
        {
          "address": "0x0108461b9dc29927a866159e0232cdbccff4471b",
          "topics": [
            "0x30385c845b448a36257a6a1716e6ad2e1bc2cbe333cde1e69fe849ad6511adfe",
            "0x000000000000000000000000d4f9573225b65c7590129cfcade37026a963d80c",
            "0x0000000000000000000000000000000000000000000000000000000000000000"
          ],
          "data": "0x",
          "blockHash": "0x28e2a87dd13e703c3373932ac84a8e7fff1a3c8a0e688c3683d9f48a038e29e1",
          "blockNumber": "0x1b32a0",
          "transactionHash": "0x53d8d0d6338cf0d8d98cc46da17961101f269cad7d6df6b4197c7e059d6df993",
          "transactionIndex": "0x0",
          "logIndex": "0x0",
          "removed": false
        }
      ],
      "logsBloom": "0x00000000000000000000000000000000000000000000000000000000000000020000000000000800000000000000000000000000000000000000020000000000000000000000000000000000000000000000000000000000000080000000000000000000020000000000000000000800000000000000000080000000000000000000000000000000000000000000000000000000000000000000000000000000000000000000000000000000000000000000000000000000000000000000000000000000000000000000000000000000000000000040000000000000000020000000000400000000000000000000000000400000000000000000000000000000",
      "type": "0x0",
      "transactionHash": "0x53d8d0d6338cf0d8d98cc46da17961101f269cad7d6df6b4197c7e059d6df993",
      "transactionIndex": "0x0",
      "blockHash": "0x28e2a87dd13e703c3373932ac84a8e7fff1a3c8a0e688c3683d9f48a038e29e1",
      "blockNumber": "0x1b32a0",
      "gasUsed": "0x1bb30",
      "effectiveGasPrice": "0x0",
      "from": "0xd4f9573225b65c7590129cfcade37026a963d80c",
      "to": "0x0108461b9dc29927a866159e0232cdbccff4471b",
      "contractAddress": null
    },
    {
      "status": "0x1",
      "cumulativeGasUsed": "0x1b4e1",
      "logs": [],
      "logsBloom": "0x00000000000000000000000000000000000000000000000000000000000000000000000000000000000000000000000000000000000000000000000000000000000000000000000000000000000000000000000000000000000000000000000000000000000000000000000000000000000000000000000000000000000000000000000000000000000000000000000000000000000000000000000000000000000000000000000000000000000000000000000000000000000000000000000000000000000000000000000000000000000000000000000000000000000000000000000000000000000000000000000000000000000000000000000000000000",
      "type": "0x0",
      "transactionHash": "0xe71c8dfc01937edf03a590cb55d9653d9f598674185fc953728d29adc5c24881",
      "transactionIndex": "0x0",
      "blockHash": "0x722367d9b5042d7cd516510683f0fbde561587fb1b13565e9ab056f8315ebe31",
      "blockNumber": "0x1b32a1",
      "gasUsed": "0x1b4e1",
      "effectiveGasPrice": "0x0",
      "from": "0xd4f9573225b65c7590129cfcade37026a963d80c",
      "to": "0x0108461b9dc29927a866159e0232cdbccff4471b",
      "contractAddress": null
    }
  ],
  "libraries": [],
  "pending": [],
  "returns": {},
  "timestamp": 1726867110,
  "chain": 22040,
  "commit": "90f5bf6"
}