{
  "transactions": [
    {
      "hash": "0xf82d63e6851d6d9a905b7675159bc6305cbe09d26f1e8663fb197a954d4a0934",
      "transactionType": "CALL",
      "contractName": null,
      "contractAddress": "0xbee236dd56637f5ed6d4c8a6721c694e8580448e",
      "function": "addAchievement(uint256,string,string)",
      "arguments": [
        "1",
        "\"First Achievement\"",
        "\"This is the first achievement\""
      ],
      "transaction": {
        "from": "0xd4f9573225b65c7590129cfcade37026a963d80c",
        "to": "0xbee236dd56637f5ed6d4c8a6721c694e8580448e",
        "gas": "0x23e66",
        "value": "0x0",
        "input": "0xf2276b310000000000000000000000000000000000000000000000000000000000000001000000000000000000000000000000000000000000000000000000000000006000000000000000000000000000000000000000000000000000000000000000a00000000000000000000000000000000000000000000000000000000000000011466972737420416368696576656d656e74000000000000000000000000000000000000000000000000000000000000000000000000000000000000000000001d546869732069732074686520666972737420616368696576656d656e74000000",
        "nonce": "0xd",
        "chainId": "0x5618"
      },
      "additionalContracts": [],
      "isFixedGasLimit": false
    },
    {
      "hash": "0xaa80b2f396400e5e86fd4b43925ea17967ed1227c4ed3490eca72604a9efad42",
      "transactionType": "CALL",
      "contractName": null,
      "contractAddress": "0xbee236dd56637f5ed6d4c8a6721c694e8580448e",
      "function": "removeAchievement(uint256,string)",
      "arguments": [
        "1",
        "\"First Achievement\""
      ],
      "transaction": {
        "from": "0xd4f9573225b65c7590129cfcade37026a963d80c",
        "to": "0xbee236dd56637f5ed6d4c8a6721c694e8580448e",
        "gas": "0x102ab",
        "value": "0x0",
        "input": "0xfcffda64000000000000000000000000000000000000000000000000000000000000000100000000000000000000000000000000000000000000000000000000000000400000000000000000000000000000000000000000000000000000000000000011466972737420416368696576656d656e74000000000000000000000000000000",
        "nonce": "0xe",
        "chainId": "0x5618"
      },
      "additionalContracts": [],
      "isFixedGasLimit": false
    }
  ],
  "receipts": [
    {
      "status": "0x1",
      "cumulativeGasUsed": "0x17a89",
      "logs": [],
      "logsBloom": "0x00000000000000000000000000000000000000000000000000000000000000000000000000000000000000000000000000000000000000000000000000000000000000000000000000000000000000000000000000000000000000000000000000000000000000000000000000000000000000000000000000000000000000000000000000000000000000000000000000000000000000000000000000000000000000000000000000000000000000000000000000000000000000000000000000000000000000000000000000000000000000000000000000000000000000000000000000000000000000000000000000000000000000000000000000000000",
      "type": "0x0",
      "transactionHash": "0xf82d63e6851d6d9a905b7675159bc6305cbe09d26f1e8663fb197a954d4a0934",
      "transactionIndex": "0x0",
      "blockHash": "0x6a9f129df7bc53c3311fcf94adfef173c9cb4e1fdcce2e40e65f1dd6065b3cef",
      "blockNumber": "0x1b3295",
      "gasUsed": "0x17a89",
      "effectiveGasPrice": "0x0",
      "from": "0xd4f9573225b65c7590129cfcade37026a963d80c",
      "to": "0xbee236dd56637f5ed6d4c8a6721c694e8580448e",
      "contractAddress": null
    }
  ],
  "libraries": [],
  "pending": [],
  "returns": {},
  "timestamp": 1726867033,
  "chain": 22040,
  "commit": "90f5bf6"
}