{
  "transactions": [
    {
      "hash": "0xd8eda8675e35a62520ed0116d4eaa1d681aad06fa5deb8d24a7876a21365d03f",
      "transactionType": "CALL",
      "contractName": null,
      "contractAddress": "0x0de88077065a5368aa52b0d026592ed2b9514d70",
      "function": "addAchievement(uint256,string,string)",
      "arguments": [
        "0",
        "\"First Achievement\"",
        "\"This is the first achievement\""
      ],
      "transaction": {
        "from": "0xd4f9573225b65c7590129cfcade37026a963d80c",
        "to": "0x0de88077065a5368aa52b0d026592ed2b9514d70",
        "gas": "0x21e6c",
        "value": "0x0",
        "input": "0xf2276b310000000000000000000000000000000000000000000000000000000000000000000000000000000000000000000000000000000000000000000000000000006000000000000000000000000000000000000000000000000000000000000000a00000000000000000000000000000000000000000000000000000000000000011466972737420416368696576656d656e74000000000000000000000000000000000000000000000000000000000000000000000000000000000000000000001d546869732069732074686520666972737420616368696576656d656e74000000",
        "nonce": "0x1e",
        "chainId": "0x5618"
      },
      "additionalContracts": [],
      "isFixedGasLimit": false
    },
    {
      "hash": "0x1eda976537e82e1d44eb4226a92712aa4dd3befb8373744c04292ae837678b97",
      "transactionType": "CALL",
      "contractName": null,
      "contractAddress": "0x0de88077065a5368aa52b0d026592ed2b9514d70",
      "function": "removeAchievement(uint256,string)",
      "arguments": [
        "0",
        "\"First Achievement\""
      ],
      "transaction": {
        "from": "0xd4f9573225b65c7590129cfcade37026a963d80c",
        "to": "0x0de88077065a5368aa52b0d026592ed2b9514d70",
        "gas": "0x1029d",
        "value": "0x0",
        "input": "0xfcffda64000000000000000000000000000000000000000000000000000000000000000000000000000000000000000000000000000000000000000000000000000000400000000000000000000000000000000000000000000000000000000000000011466972737420416368696576656d656e74000000000000000000000000000000",
        "nonce": "0x1f",
        "chainId": "0x5618"
      },
      "additionalContracts": [],
      "isFixedGasLimit": false
    }
  ],
  "receipts": [
    {
      "status": "0x1",
      "cumulativeGasUsed": "0x17a49",
      "logs": [],
      "logsBloom": "0x00000000000000000000000000000000000000000000000000000000000000000000000000000000000000000000000000000000000000000000000000000000000000000000000000000000000000000000000000000000000000000000000000000000000000000000000000000000000000000000000000000000000000000000000000000000000000000000000000000000000000000000000000000000000000000000000000000000000000000000000000000000000000000000000000000000000000000000000000000000000000000000000000000000000000000000000000000000000000000000000000000000000000000000000000000000",
      "type": "0x0",
      "transactionHash": "0xd8eda8675e35a62520ed0116d4eaa1d681aad06fa5deb8d24a7876a21365d03f",
      "transactionIndex": "0x0",
      "blockHash": "0x3163ba32ca05a59aca14bcacaa545a769bb7b7c02b9a1133eed5ce1f79841356",
      "blockNumber": "0x1b333d",
      "gasUsed": "0x17a49",
      "effectiveGasPrice": "0x0",
      "from": "0xd4f9573225b65c7590129cfcade37026a963d80c",
      "to": "0x0de88077065a5368aa52b0d026592ed2b9514d70",
      "contractAddress": null
    }
  ],
  "libraries": [],
  "pending": [],
  "returns": {},
  "timestamp": 1726868096,
  "chain": 22040,
  "commit": "90f5bf6"
}