{
  "transactions": [
    {
      "hash": "0x79033836c9db0e7d2921ecbf8824c8e7d99769d960e396658fed411362ddd4d0",
      "transactionType": "CALL",
      "contractName": null,
      "contractAddress": "0x0de88077065a5368aa52b0d026592ed2b9514d70",
      "function": "addAchievement(uint256,string,string)",
      "arguments": [
        "0",
        "\"First Achievement\"",
        "\"This is the first achievement\""
      ],
      "transaction": {
        "from": "0xd4f9573225b65c7590129cfcade37026a963d80c",
        "to": "0x0de88077065a5368aa52b0d026592ed2b9514d70",
        "gas": "0x21e6c",
        "value": "0x0",
        "input": "0xf2276b310000000000000000000000000000000000000000000000000000000000000000000000000000000000000000000000000000000000000000000000000000006000000000000000000000000000000000000000000000000000000000000000a00000000000000000000000000000000000000000000000000000000000000011466972737420416368696576656d656e74000000000000000000000000000000000000000000000000000000000000000000000000000000000000000000001d546869732069732074686520666972737420616368696576656d656e74000000",
        "nonce": "0x1a",
        "chainId": "0x5618"
      },
      "additionalContracts": [],
      "isFixedGasLimit": false
    },
    {
      "hash": "0xc788884b8656446edf944b3c3e71f6fa2fe138cfa385055bfab7476986a83c44",
      "transactionType": "CALL",
      "contractName": null,
      "contractAddress": "0x0de88077065a5368aa52b0d026592ed2b9514d70",
      "function": "removeAchievement(uint256,string)",
      "arguments": [
        "0",
        "\"First Achievement\""
      ],
      "transaction": {
        "from": "0xd4f9573225b65c7590129cfcade37026a963d80c",
        "to": "0x0de88077065a5368aa52b0d026592ed2b9514d70",
        "gas": "0x1029d",
        "value": "0x0",
        "input": "0xfcffda64000000000000000000000000000000000000000000000000000000000000000000000000000000000000000000000000000000000000000000000000000000400000000000000000000000000000000000000000000000000000000000000011466972737420416368696576656d656e74000000000000000000000000000000",
        "nonce": "0x1b",
        "chainId": "0x5618"
      },
      "additionalContracts": [],
      "isFixedGasLimit": false
    }
  ],
  "receipts": [
    {
      "status": "0x1",
      "cumulativeGasUsed": "0x17a49",
      "logs": [],
      "logsBloom": "0x00000000000000000000000000000000000000000000000000000000000000000000000000000000000000000000000000000000000000000000000000000000000000000000000000000000000000000000000000000000000000000000000000000000000000000000000000000000000000000000000000000000000000000000000000000000000000000000000000000000000000000000000000000000000000000000000000000000000000000000000000000000000000000000000000000000000000000000000000000000000000000000000000000000000000000000000000000000000000000000000000000000000000000000000000000000",
      "type": "0x0",
      "transactionHash": "0x79033836c9db0e7d2921ecbf8824c8e7d99769d960e396658fed411362ddd4d0",
      "transactionIndex": "0x0",
      "blockHash": "0xd09d09dbe6a22b6323ae78cb95bab7839e6a88014401fc5c7eea3914de9d2584",
      "blockNumber": "0x1b3306",
      "gasUsed": "0x17a49",
      "effectiveGasPrice": "0x0",
      "from": "0xd4f9573225b65c7590129cfcade37026a963d80c",
      "to": "0x0de88077065a5368aa52b0d026592ed2b9514d70",
      "contractAddress": null
    }
  ],
  "libraries": [],
  "pending": [],
  "returns": {},
  "timestamp": 1726867739,
  "chain": 22040,
  "commit": "90f5bf6"
}