{
  "transactions": [
    {
      "hash": "0x81495b77d2acecc58990fa601f8dcb262e484679699897fd6eb3e61930ba6de8",
      "transactionType": "CALL",
      "contractName": null,
      "contractAddress": "0xbee236dd56637f5ed6d4c8a6721c694e8580448e",
      "function": "mint(address,string)",
      "arguments": [
        "0xd4f9573225b65C7590129CfCade37026A963d80C",
        "\"ipfs://QmExample\""
      ],
      "transaction": {
        "from": "0xd4f9573225b65c7590129cfcade37026a963d80c",
        "to": "0xbee236dd56637f5ed6d4c8a6721c694e8580448e",
        "gas": "0x2179e",
        "value": "0x0",
        "input": "0xd0def521000000000000000000000000d4f9573225b65c7590129cfcade37026a963d80c00000000000000000000000000000000000000000000000000000000000000400000000000000000000000000000000000000000000000000000000000000010697066733a2f2f516d4578616d706c6500000000000000000000000000000000",
        "nonce": "0x6",
        "chainId": "0x5618"
      },
      "additionalContracts": [],
      "isFixedGasLimit": false
    },
    {
      "hash": "0xcc986b27303318b51d4b1cc309bf449245e8ba98cfec3add2c633b7bebfc7ac3",
      "transactionType": "CALL",
      "contractName": null,
      "contractAddress": "0xbee236dd56637f5ed6d4c8a6721c694e8580448e",
      "function": "addAchievement(uint256,string,string)",
      "arguments": [
        "1",
        "\"First Achievement\"",
        "\"This is the first achievement\""
      ],
      "transaction": {
        "from": "0xd4f9573225b65c7590129cfcade37026a963d80c",
        "to": "0xbee236dd56637f5ed6d4c8a6721c694e8580448e",
        "gas": "0x27ac0",
        "value": "0x0",
        "input": "0xf2276b310000000000000000000000000000000000000000000000000000000000000001000000000000000000000000000000000000000000000000000000000000006000000000000000000000000000000000000000000000000000000000000000a00000000000000000000000000000000000000000000000000000000000000011466972737420416368696576656d656e74000000000000000000000000000000000000000000000000000000000000000000000000000000000000000000001d546869732069732074686520666972737420616368696576656d656e74000000",
        "nonce": "0x7",
        "chainId": "0x5618"
      },
      "additionalContracts": [],
      "isFixedGasLimit": false
    },
    {
      "hash": "0x767f0508a40d042aecbdaabb7bb44dc2d2748d56983da33f0555613be53e8d82",
      "transactionType": "CALL",
      "contractName": null,
      "contractAddress": "0xbee236dd56637f5ed6d4c8a6721c694e8580448e",
      "function": "removeAchievement(uint256,string)",
      "arguments": [
        "1",
        "\"First Achievement\""
      ],
      "transaction": {
        "from": "0xd4f9573225b65c7590129cfcade37026a963d80c",
        "to": "0xbee236dd56637f5ed6d4c8a6721c694e8580448e",
        "gas": "0xd4dc",
        "value": "0x0",
        "input": "0xfcffda64000000000000000000000000000000000000000000000000000000000000000100000000000000000000000000000000000000000000000000000000000000400000000000000000000000000000000000000000000000000000000000000011466972737420416368696576656d656e74000000000000000000000000000000",
        "nonce": "0x8",
        "chainId": "0x5618"
      },
      "additionalContracts": [],
      "isFixedGasLimit": false
    }
  ],
  "receipts": [
    {
      "status": "0x1",
      "cumulativeGasUsed": "0x18098",
      "logs": [
        {
          "address": "0xbee236dd56637f5ed6d4c8a6721c694e8580448e",
          "topics": [
            "0x30385c845b448a36257a6a1716e6ad2e1bc2cbe333cde1e69fe849ad6511adfe",
            "0x000000000000000000000000d4f9573225b65c7590129cfcade37026a963d80c",
            "0x0000000000000000000000000000000000000000000000000000000000000001"
          ],
          "data": "0x",
          "blockHash": "0xb9c171220b26cdc0897c5e1329a77a35c35550dd7435e09c414fc51268868150",
          "blockNumber": "0x1b3254",
          "transactionHash": "0x81495b77d2acecc58990fa601f8dcb262e484679699897fd6eb3e61930ba6de8",
          "transactionIndex": "0x0",
          "logIndex": "0x0",
          "removed": false
        }
      ],
      "logsBloom": "0x00000000000000000000000000000000000000000000000000000000000000020000000000001800000000000000000000000000000000000000020000040000000000000000000000000000000000000008000000040000000000000000000000000000000000000000000000000000000000000000000080000000000000000000000000000000000000000000000000000000000000000000000000000000000000000000000000000000000000000000000000000000000000000000000000000000000000000000000000000000400000000040000000000000000040000000000000000000000000000000000000000000000000000000000000000000",
      "type": "0x0",
      "transactionHash": "0x81495b77d2acecc58990fa601f8dcb262e484679699897fd6eb3e61930ba6de8",
      "transactionIndex": "0x0",
      "blockHash": "0xb9c171220b26cdc0897c5e1329a77a35c35550dd7435e09c414fc51268868150",
      "blockNumber": "0x1b3254",
      "gasUsed": "0x18098",
      "effectiveGasPrice": "0x0",
      "from": "0xd4f9573225b65c7590129cfcade37026a963d80c",
      "to": "0xbee236dd56637f5ed6d4c8a6721c694e8580448e",
      "contractAddress": null
    },
    {
      "status": "0x1",
      "cumulativeGasUsed": "0x335b9",
      "logs": [],
      "logsBloom": "0x00000000000000000000000000000000000000000000000000000000000000000000000000000000000000000000000000000000000000000000000000000000000000000000000000000000000000000000000000000000000000000000000000000000000000000000000000000000000000000000000000000000000000000000000000000000000000000000000000000000000000000000000000000000000000000000000000000000000000000000000000000000000000000000000000000000000000000000000000000000000000000000000000000000000000000000000000000000000000000000000000000000000000000000000000000000",
      "type": "0x0",
      "transactionHash": "0xcc986b27303318b51d4b1cc309bf449245e8ba98cfec3add2c633b7bebfc7ac3",
      "transactionIndex": "0x1",
      "blockHash": "0xb9c171220b26cdc0897c5e1329a77a35c35550dd7435e09c414fc51268868150",
      "blockNumber": "0x1b3254",
      "gasUsed": "0x1b521",
      "effectiveGasPrice": "0x0",
      "from": "0xd4f9573225b65c7590129cfcade37026a963d80c",
      "to": "0xbee236dd56637f5ed6d4c8a6721c694e8580448e",
      "contractAddress": null
    }
  ],
  "libraries": [],
  "pending": [],
  "returns": {},
  "timestamp": 1726866619,
  "chain": 22040,
  "commit": "90f5bf6"
}