{
  "transactions": [
    {
      "hash": "0x17d29fe94181cb7bb2925ee45a0b3d9f83391d915cf8e11c00158d37bd5f6410",
      "transactionType": "CALL",
      "contractName": null,
      "contractAddress": "0x0108461b9dc29927a866159e0232cdbccff4471b",
      "function": "mint(address,string)",
      "arguments": [
        "0xfa97a95C49369181211679d24F61A49470Bba110",
        "\"ipfs://QmExample\""
      ],
      "transaction": {
        "from": "0xd4f9573225b65c7590129cfcade37026a963d80c",
        "to": "0x0108461b9dc29927a866159e0232cdbccff4471b",
        "gas": "0x2179e",
        "value": "0x0",
        "input": "0xd0def521000000000000000000000000fa97a95c49369181211679d24f61a49470bba11000000000000000000000000000000000000000000000000000000000000000400000000000000000000000000000000000000000000000000000000000000010697066733a2f2f516d4578616d706c6500000000000000000000000000000000",
        "nonce": "0x13",
        "chainId": "0x5618"
      },
      "additionalContracts": [],
      "isFixedGasLimit": false
    },
    {
      "hash": "0xb7e166bcb1819b661dbbf69fcb6a67514eebabbee44d5445f2e40f89bc0ef6b2",
      "transactionType": "CALL",
      "contractName": null,
      "contractAddress": "0x0108461b9dc29927a866159e0232cdbccff4471b",
      "function": "addAchievement(uint256,string,string)",
      "arguments": [
        "1",
        "\"First Achievement\"",
        "\"This is the first achievement\""
      ],
      "transaction": {
        "from": "0xd4f9573225b65c7590129cfcade37026a963d80c",
        "to": "0x0108461b9dc29927a866159e0232cdbccff4471b",
        "gas": "0x27ac0",
        "value": "0x0",
        "input": "0xf2276b310000000000000000000000000000000000000000000000000000000000000001000000000000000000000000000000000000000000000000000000000000006000000000000000000000000000000000000000000000000000000000000000a00000000000000000000000000000000000000000000000000000000000000011466972737420416368696576656d656e74000000000000000000000000000000000000000000000000000000000000000000000000000000000000000000001d546869732069732074686520666972737420616368696576656d656e74000000",
        "nonce": "0x14",
        "chainId": "0x5618"
      },
      "additionalContracts": [],
      "isFixedGasLimit": false
    },
    {
      "hash": "0x0e9a735c64808f7a251ddee41ed34ec38bd462db54701bf2a05e03a243a7df01",
      "transactionType": "CALL",
      "contractName": null,
      "contractAddress": "0x0108461b9dc29927a866159e0232cdbccff4471b",
      "function": "removeAchievement(uint256,string)",
      "arguments": [
        "1",
        "\"First Achievement\""
      ],
      "transaction": {
        "from": "0xd4f9573225b65c7590129cfcade37026a963d80c",
        "to": "0x0108461b9dc29927a866159e0232cdbccff4471b",
        "gas": "0xd4dc",
        "value": "0x0",
        "input": "0xfcffda64000000000000000000000000000000000000000000000000000000000000000100000000000000000000000000000000000000000000000000000000000000400000000000000000000000000000000000000000000000000000000000000011466972737420416368696576656d656e74000000000000000000000000000000",
        "nonce": "0x15",
        "chainId": "0x5618"
      },
      "additionalContracts": [],
      "isFixedGasLimit": false
    }
  ],
  "receipts": [
    {
      "status": "0x1",
      "cumulativeGasUsed": "0x18098",
      "logs": [
        {
          "address": "0x0108461b9dc29927a866159e0232cdbccff4471b",
          "topics": [
            "0x30385c845b448a36257a6a1716e6ad2e1bc2cbe333cde1e69fe849ad6511adfe",
            "0x000000000000000000000000fa97a95c49369181211679d24f61a49470bba110",
            "0x0000000000000000000000000000000000000000000000000000000000000001"
          ],
          "data": "0x",
          "blockHash": "0x14badd50eb4ae078d779b5b792e70be79267208734645373337f3f4d6ca5a152",
          "blockNumber": "0x1b32e3",
          "transactionHash": "0x17d29fe94181cb7bb2925ee45a0b3d9f83391d915cf8e11c00158d37bd5f6410",
          "transactionIndex": "0x0",
          "logIndex": "0x0",
          "removed": false
        }
      ],
      "logsBloom": "0x00000000000000000000000000000000000000000000000000000000000000020000000000000000000000000000000000000000000000000000000000040000000000000000000000000000000000000000000000040000000080000000000000000000000000000000000000000000000000000000000080000000000000000000000000400000000000000000000000000000000000000000000000000000000000000000000000000000000000000000000000000000000000000000000008000000000000000000000000000000000000004040000000000000000040000000000400000000000000000000000000400000000000000000000000000000",
      "type": "0x0",
      "transactionHash": "0x17d29fe94181cb7bb2925ee45a0b3d9f83391d915cf8e11c00158d37bd5f6410",
      "transactionIndex": "0x0",
      "blockHash": "0x14badd50eb4ae078d779b5b792e70be79267208734645373337f3f4d6ca5a152",
      "blockNumber": "0x1b32e3",
      "gasUsed": "0x18098",
      "effectiveGasPrice": "0x0",
      "from": "0xd4f9573225b65c7590129cfcade37026a963d80c",
      "to": "0x0108461b9dc29927a866159e0232cdbccff4471b",
      "contractAddress": null
    },
    {
      "status": "0x1",
      "cumulativeGasUsed": "0x335b9",
      "logs": [],
      "logsBloom": "0x00000000000000000000000000000000000000000000000000000000000000000000000000000000000000000000000000000000000000000000000000000000000000000000000000000000000000000000000000000000000000000000000000000000000000000000000000000000000000000000000000000000000000000000000000000000000000000000000000000000000000000000000000000000000000000000000000000000000000000000000000000000000000000000000000000000000000000000000000000000000000000000000000000000000000000000000000000000000000000000000000000000000000000000000000000000",
      "type": "0x0",
      "transactionHash": "0xb7e166bcb1819b661dbbf69fcb6a67514eebabbee44d5445f2e40f89bc0ef6b2",
      "transactionIndex": "0x1",
      "blockHash": "0x14badd50eb4ae078d779b5b792e70be79267208734645373337f3f4d6ca5a152",
      "blockNumber": "0x1b32e3",
      "gasUsed": "0x1b521",
      "effectiveGasPrice": "0x0",
      "from": "0xd4f9573225b65c7590129cfcade37026a963d80c",
      "to": "0x0108461b9dc29927a866159e0232cdbccff4471b",
      "contractAddress": null
    }
  ],
  "libraries": [],
  "pending": [],
  "returns": {},
  "timestamp": 1726867518,
  "chain": 22040,
  "commit": "90f5bf6"
}