{
  "transactions": [
    {
      "hash": "0x6197d3ec82d270944e2ff8df89f66434cad17ce20516713e2ceac9cd601446e3",
      "transactionType": "CALL",
      "contractName": null,
      "contractAddress": "0xbee236dd56637f5ed6d4c8a6721c694e8580448e",
      "function": "mint(address,string)",
      "arguments": [
        "0xBEE236DD56637f5ED6D4c8A6721c694e8580448E",
        "\"ipfs://QmExample\""
      ],
      "transaction": {
        "from": "0xd4f9573225b65c7590129cfcade37026a963d80c",
        "to": "0xbee236dd56637f5ed6d4c8a6721c694e8580448e",
        "gas": "0x273e2",
        "value": "0x0",
        "input": "0xd0def521000000000000000000000000bee236dd56637f5ed6d4c8a6721c694e8580448e00000000000000000000000000000000000000000000000000000000000000400000000000000000000000000000000000000000000000000000000000000010697066733a2f2f516d4578616d706c6500000000000000000000000000000000",
        "nonce": "0x1",
        "chainId": "0x5618"
      },
      "additionalContracts": [],
      "isFixedGasLimit": false
    },
    {
      "hash": "0x0c3bd18ca592f667508e96134673dc71badce7be8b2aa7f4a4402f7c5b8827c9",
      "transactionType": "CALL",
      "contractName": null,
      "contractAddress": "0xbee236dd56637f5ed6d4c8a6721c694e8580448e",
      "function": "addAchievement(uint256,string,string)",
      "arguments": [
        "0",
        "\"First Achievement\"",
        "\"This is the first achievement\""
      ],
      "transaction": {
        "from": "0xd4f9573225b65c7590129cfcade37026a963d80c",
        "to": "0xbee236dd56637f5ed6d4c8a6721c694e8580448e",
        "gas": "0x2a006",
        "value": "0x0",
        "input": "0xf2276b310000000000000000000000000000000000000000000000000000000000000000000000000000000000000000000000000000000000000000000000000000006000000000000000000000000000000000000000000000000000000000000000a00000000000000000000000000000000000000000000000000000000000000011466972737420416368696576656d656e74000000000000000000000000000000000000000000000000000000000000000000000000000000000000000000001d546869732069732074686520666972737420616368696576656d656e74000000",
        "nonce": "0x2",
        "chainId": "0x5618"
      },
      "additionalContracts": [],
      "isFixedGasLimit": false
    },
    {
      "hash": "0x25659506efe80e79841373fdb3cdea41873dd20acd078fde055f26f330f44f85",
      "transactionType": "CALL",
      "contractName": null,
      "contractAddress": "0xbee236dd56637f5ed6d4c8a6721c694e8580448e",
      "function": "removeAchievement(uint256,string)",
      "arguments": [
        "0",
        "\"First Achievement\""
      ],
      "transaction": {
        "from": "0xd4f9573225b65c7590129cfcade37026a963d80c",
        "to": "0xbee236dd56637f5ed6d4c8a6721c694e8580448e",
        "gas": "0xe154",
        "value": "0x0",
        "input": "0xfcffda64000000000000000000000000000000000000000000000000000000000000000000000000000000000000000000000000000000000000000000000000000000400000000000000000000000000000000000000000000000000000000000000011466972737420416368696576656d656e74000000000000000000000000000000",
        "nonce": "0x3",
        "chainId": "0x5618"
      },
      "additionalContracts": [],
      "isFixedGasLimit": false
    }
  ],
  "receipts": [
    {
      "status": "0x1",
      "cumulativeGasUsed": "0x1bb30",
      "logs": [
        {
          "address": "0xbee236dd56637f5ed6d4c8a6721c694e8580448e",
          "topics": [
            "0x30385c845b448a36257a6a1716e6ad2e1bc2cbe333cde1e69fe849ad6511adfe",
            "0x000000000000000000000000bee236dd56637f5ed6d4c8a6721c694e8580448e",
            "0x0000000000000000000000000000000000000000000000000000000000000000"
          ],
          "data": "0x",
          "blockHash": "0xb8447de7a276e7da8bde94287adc941087697ede63486d12d7ac29eff7c85a54",
          "blockNumber": "0x1b3201",
          "transactionHash": "0x6197d3ec82d270944e2ff8df89f66434cad17ce20516713e2ceac9cd601446e3",
          "transactionIndex": "0x0",
          "logIndex": "0x0",
          "removed": false
        }
      ],
      "logsBloom": "0x00000000000000000000000000000000000000000200000000000000000000020000000000001000000000000000000000000000000002000000000000000000000000000000000000000000000000000008000000000000000000000000000000000000020000000000000000000800000000000000000080000000000000000000000000000000000000000000000000000000000000000000000000000000000000000400000000000000000000000000000000000000000000000000000000000000000000000000000000000000400000000040000000000000000020000000000000000000000000000000000000000000000000000000000000000000",
      "type": "0x0",
      "transactionHash": "0x6197d3ec82d270944e2ff8df89f66434cad17ce20516713e2ceac9cd601446e3",
      "transactionIndex": "0x0",
      "blockHash": "0xb8447de7a276e7da8bde94287adc941087697ede63486d12d7ac29eff7c85a54",
      "blockNumber": "0x1b3201",
      "gasUsed": "0x1bb30",
      "effectiveGasPrice": "0x0",
      "from": "0xd4f9573225b65c7590129cfcade37026a963d80c",
      "to": "0xbee236dd56637f5ed6d4c8a6721c694e8580448e",
      "contractAddress": null
    },
    {
      "status": "0x1",
      "cumulativeGasUsed": "0x37011",
      "logs": [],
      "logsBloom": "0x00000000000000000000000000000000000000000000000000000000000000000000000000000000000000000000000000000000000000000000000000000000000000000000000000000000000000000000000000000000000000000000000000000000000000000000000000000000000000000000000000000000000000000000000000000000000000000000000000000000000000000000000000000000000000000000000000000000000000000000000000000000000000000000000000000000000000000000000000000000000000000000000000000000000000000000000000000000000000000000000000000000000000000000000000000000",
      "type": "0x0",
      "transactionHash": "0x0c3bd18ca592f667508e96134673dc71badce7be8b2aa7f4a4402f7c5b8827c9",
      "transactionIndex": "0x1",
      "blockHash": "0xb8447de7a276e7da8bde94287adc941087697ede63486d12d7ac29eff7c85a54",
      "blockNumber": "0x1b3201",
      "gasUsed": "0x1b4e1",
      "effectiveGasPrice": "0x0",
      "from": "0xd4f9573225b65c7590129cfcade37026a963d80c",
      "to": "0xbee236dd56637f5ed6d4c8a6721c694e8580448e",
      "contractAddress": null
    }
  ],
  "libraries": [],
  "pending": [],
  "returns": {},
  "timestamp": 1726866093,
  "chain": 22040,
  "commit": "90f5bf6"
}