{
  "transactions": [
    {
      "hash": "0xa3b64282cbec956b43a17c1be4a3a6a04fa9aafe1e3d440b7582258622bb3665",
      "transactionType": "CALL",
      "contractName": null,
      "contractAddress": "0xbee236dd56637f5ed6d4c8a6721c694e8580448e",
      "function": "mint(address,string)",
      "arguments": [
        "0xfa97a95C49369181211679d24F61A49470Bba110",
        "url"
      ],
      "transaction": {
        "from": "0xd4f9573225b65c7590129cfcade37026a963d80c",
        "to": "0xbee236dd56637f5ed6d4c8a6721c694e8580448e",
        "gas": "0x2730a",
        "value": "0x0",
        "input": "0xd0def521000000000000000000000000fa97a95c49369181211679d24f61a49470bba1100000000000000000000000000000000000000000000000000000000000000040000000000000000000000000000000000000000000000000000000000000000375726c0000000000000000000000000000000000000000000000000000000000",
        "nonce": "0x2",
        "chainId": "0xaa36a7"
      },
      "additionalContracts": [],
      "isFixedGasLimit": false
    }
  ],
  "receipts": [
    {
      "status": "0x1",
      "cumulativeGasUsed": "0x12e79c6",
      "logs": [
        {
          "address": "0xbee236dd56637f5ed6d4c8a6721c694e8580448e",
          "topics": [
            "0x30385c845b448a36257a6a1716e6ad2e1bc2cbe333cde1e69fe849ad6511adfe",
            "0x000000000000000000000000fa97a95c49369181211679d24f61a49470bba110",
            "0x0000000000000000000000000000000000000000000000000000000000000000"
          ],
          "data": "0x",
          "blockHash": "0x37a75745452a60844c7d1489acdeb943809bd54556ef98f5c9e5ec7ff50bb700",
          "blockNumber": "0x66c07e",
          "transactionHash": "0xa3b64282cbec956b43a17c1be4a3a6a04fa9aafe1e3d440b7582258622bb3665",
          "transactionIndex": "0x6e",
          "logIndex": "0xb4",
          "removed": false
        }
      ],
      "logsBloom": "0x00000000000000000000000000000000000000000000000000000000000000020000000000001000000000000000000000000000000000000000000000000000000000000000000000000000000000000008000000000000000000000000000000000000020000000000000000000800000000000000000080000000000000000000000000400000000000000000000000000000000000000000000000000000000000000000000000000000000000000000000000000000000000000000000008000000000000000000000000000000400000004040000000000000000020000000000000000000000000000000000000000000000000000000000000000000",
      "type": "0x2",
      "transactionHash": "0xa3b64282cbec956b43a17c1be4a3a6a04fa9aafe1e3d440b7582258622bb3665",
      "transactionIndex": "0x6e",
      "blockHash": "0x37a75745452a60844c7d1489acdeb943809bd54556ef98f5c9e5ec7ff50bb700",
      "blockNumber": "0x66c07e",
      "gasUsed": "0x1c5f8",
      "effectiveGasPrice": "0x60fe299f0",
      "from": "0xd4f9573225b65c7590129cfcade37026a963d80c",
      "to": "0xbee236dd56637f5ed6d4c8a6721c694e8580448e",
      "contractAddress": null
    }
  ],
  "libraries": [],
  "pending": [],
  "returns": {},
  "timestamp": 1726932940,
  "chain": 11155111,
  "commit": "8b629ee"
}